{
  "contractName": "InvestmentTracker",
  "abi": [
    {
      "inputs": [
        {
          "internalType": "uint256",
          "name": "_tokenamount",
          "type": "uint256"
        },
        {
          "internalType": "address",
          "name": "_MindPayAddress",
          "type": "address"
        }
      ],
      "stateMutability": "payable",
      "type": "constructor"
    },
    {
      "anonymous": false,
      "inputs": [
        {
          "indexed": false,
          "internalType": "address",
          "name": "liquid_contract",
          "type": "address"
        },
        {
          "indexed": false,
          "internalType": "address",
          "name": "owner",
          "type": "address"
        },
        {
          "indexed": false,
          "internalType": "uint256",
          "name": "EthTRansferred",
          "type": "uint256"
        }
      ],
      "name": "LiquidEtherTransfer",
      "type": "event"
    },
    {
      "anonymous": false,
      "inputs": [
        {
          "indexed": false,
          "internalType": "address",
          "name": "reserve_contract",
          "type": "address"
        },
        {
          "indexed": false,
          "internalType": "address",
          "name": "owner",
          "type": "address"
        },
        {
          "indexed": false,
          "internalType": "uint256",
          "name": "EthTRansferred",
          "type": "uint256"
        }
      ],
      "name": "ReserveEtherTransfer",
      "type": "event"
    },
    {
      "inputs": [],
      "name": "bonus_tokens",
      "outputs": [
        {
          "internalType": "uint256",
          "name": "",
          "type": "uint256"
        }
      ],
      "stateMutability": "view",
      "type": "function"
    },
    {
      "inputs": [],
      "name": "investedAmount",
      "outputs": [
        {
          "internalType": "uint256",
          "name": "",
          "type": "uint256"
        }
      ],
      "stateMutability": "view",
      "type": "function"
    },
    {
      "inputs": [
        {
          "internalType": "uint256",
          "name": "",
          "type": "uint256"
        }
      ],
      "name": "liquid_investments",
      "outputs": [
        {
          "internalType": "address",
          "name": "",
          "type": "address"
        }
      ],
      "stateMutability": "view",
      "type": "function"
    },
    {
      "inputs": [],
      "name": "liquidity_amount",
      "outputs": [
        {
          "internalType": "uint256",
          "name": "",
          "type": "uint256"
        }
      ],
      "stateMutability": "view",
      "type": "function"
    },
    {
      "inputs": [],
      "name": "owner",
      "outputs": [
        {
          "internalType": "address",
          "name": "",
          "type": "address"
        }
      ],
      "stateMutability": "view",
      "type": "function"
    },
    {
      "inputs": [],
      "name": "reserve_amount",
      "outputs": [
        {
          "internalType": "uint256",
          "name": "",
          "type": "uint256"
        }
      ],
      "stateMutability": "view",
      "type": "function"
    },
    {
      "inputs": [
        {
          "internalType": "uint256",
          "name": "",
          "type": "uint256"
        }
      ],
      "name": "reserve_investments",
      "outputs": [
        {
          "internalType": "address",
          "name": "",
          "type": "address"
        }
      ],
      "stateMutability": "view",
      "type": "function"
    },
    {
      "inputs": [],
      "name": "token_amount",
      "outputs": [
        {
          "internalType": "uint256",
          "name": "",
          "type": "uint256"
        }
      ],
      "stateMutability": "view",
      "type": "function"
    },
    {
      "inputs": [],
      "name": "token_balance",
      "outputs": [
        {
          "internalType": "uint256",
          "name": "",
          "type": "uint256"
        }
      ],
      "stateMutability": "view",
      "type": "function"
    },
    {
      "stateMutability": "payable",
      "type": "receive"
    },
    {
      "inputs": [],
      "name": "processInvestment",
      "outputs": [],
      "stateMutability": "nonpayable",
      "type": "function"
    },
    {
      "inputs": [],
      "name": "transferReserveEther",
      "outputs": [],
      "stateMutability": "nonpayable",
      "type": "function"
    },
    {
      "inputs": [
        {
          "internalType": "contract IERC20",
          "name": "MindPayToken",
          "type": "address"
        }
      ],
      "name": "transferReserveTokens",
      "outputs": [],
      "stateMutability": "nonpayable",
      "type": "function"
    },
    {
      "inputs": [],
      "name": "getBonusTokens",
      "outputs": [
        {
          "internalType": "uint256",
          "name": "",
          "type": "uint256"
        }
      ],
      "stateMutability": "nonpayable",
      "type": "function"
    },
    {
      "inputs": [],
      "name": "transferliquidAssets",
      "outputs": [],
      "stateMutability": "nonpayable",
      "type": "function"
    },
    {
      "inputs": [],
      "name": "getEtherBalance",
      "outputs": [
        {
          "internalType": "uint256",
          "name": "",
          "type": "uint256"
        }
      ],
      "stateMutability": "view",
      "type": "function"
    },
    {
      "inputs": [
        {
          "internalType": "contract IERC20",
          "name": "MindPayToken",
          "type": "address"
        }
      ],
      "name": "getTokenBalance",
      "outputs": [
        {
          "internalType": "uint256",
          "name": "",
          "type": "uint256"
        }
      ],
      "stateMutability": "view",
      "type": "function"
    },
    {
      "inputs": [],
      "name": "getReserveInvestmentContractBalance",
      "outputs": [
        {
          "internalType": "address",
          "name": "",
          "type": "address"
        },
        {
          "internalType": "uint256",
          "name": "",
          "type": "uint256"
        },
        {
          "internalType": "uint256",
          "name": "",
          "type": "uint256"
        },
        {
          "internalType": "uint256",
          "name": "",
          "type": "uint256"
        },
        {
          "internalType": "uint256",
          "name": "",
          "type": "uint256"
        }
      ],
      "stateMutability": "view",
      "type": "function"
    },
    {
      "inputs": [],
      "name": "getLiquidContractBalance",
      "outputs": [
        {
          "internalType": "address",
          "name": "",
          "type": "address"
        },
        {
          "internalType": "uint256",
          "name": "",
          "type": "uint256"
        },
        {
          "internalType": "uint256",
          "name": "",
          "type": "uint256"
        }
      ],
      "stateMutability": "view",
      "type": "function"
    },
    {
      "inputs": [],
      "name": "cancelInvestment",
      "outputs": [
        {
          "internalType": "bool",
          "name": "cancellation_success",
          "type": "bool"
        }
      ],
      "stateMutability": "nonpayable",
      "type": "function"
    },
    {
      "inputs": [],
      "name": "stakeInvestment",
      "outputs": [
        {
          "internalType": "bool",
          "name": "cancellation_success",
          "type": "bool"
        }
      ],
      "stateMutability": "nonpayable",
      "type": "function"
    }
  ],
  "bytecode": "0x608060405260405162002db338038062002db383398181016040528101906200002991906200027a565b33600360006101000a81548173ffffffffffffffffffffffffffffffffffffffff021916908373ffffffffffffffffffffffffffffffffffffffff160217905550346002819055508160078190555080600960006101000a81548173ffffffffffffffffffffffffffffffffffffffff021916908373ffffffffffffffffffffffffffffffffffffffff16021790555033604051620000c890620001b9565b620000d49190620002d2565b604051809103906000f080158015620000f1573d6000803e3d6000fd5b50600b60006101000a81548173ffffffffffffffffffffffffffffffffffffffff021916908373ffffffffffffffffffffffffffffffffffffffff16021790555033600654306040516200014590620001c7565b620001539392919062000300565b604051809103906000f08015801562000170573d6000803e3d6000fd5b50600a60006101000a81548173ffffffffffffffffffffffffffffffffffffffff021916908373ffffffffffffffffffffffffffffffffffffffff16021790555050506200033d565b61059c8062001d1e83390190565b610af980620022ba83390190565b600080fd5b6000819050919050565b620001ef81620001da565b8114620001fb57600080fd5b50565b6000815190506200020f81620001e4565b92915050565b600073ffffffffffffffffffffffffffffffffffffffff82169050919050565b6000620002428262000215565b9050919050565b620002548162000235565b81146200026057600080fd5b50565b600081519050620002748162000249565b92915050565b60008060408385031215620002945762000293620001d5565b5b6000620002a485828601620001fe565b9250506020620002b78582860162000263565b9150509250929050565b620002cc8162000235565b82525050565b6000602082019050620002e96000830184620002c1565b92915050565b620002fa81620001da565b82525050565b6000606082019050620003176000830186620002c1565b620003266020830185620002ef565b620003356040830184620002c1565b949350505050565b6119d1806200034d6000396000f3fe6080604052600436106101235760003560e01c80638da5cb5b116100a0578063c3c0164e11610064578063c3c0164e1461039c578063c581a6af146103d9578063ca50c38f14610408578063ea46193e14610433578063eaab45971461045e5761012a565b80638da5cb5b146102c957806394f8e954146102f4578063961a21e51461031f578063b38b0b1814610348578063ba6c17d11461035f5761012a565b8063318d8af2116100e7578063318d8af2146101f25780633aecd0e31461020957806354f6c0db146102465780635ff0988f146102715780637d1b720a1461029e5761012a565b80630ab1e6031461012f57806311ac1efd1461015a57806313972238146101855780631555c92a146101b057806324370bd4146101c75761012a565b3661012a57005b600080fd5b34801561013b57600080fd5b50610144610489565b6040516101519190611010565b60405180910390f35b34801561016657600080fd5b5061016f6105f5565b60405161017c9190611044565b60405180910390f35b34801561019157600080fd5b5061019a6105fb565b6040516101a79190611044565b60405180910390f35b3480156101bc57600080fd5b506101c5610601565b005b3480156101d357600080fd5b506101dc61079d565b6040516101e99190611044565b60405180910390f35b3480156101fe57600080fd5b506102076107a3565b005b34801561021557600080fd5b50610230600480360381019061022b91906110d4565b6107f7565b60405161023d9190611044565b60405180910390f35b34801561025257600080fd5b5061025b61087e565b6040516102689190611044565b60405180910390f35b34801561027d57600080fd5b50610286610884565b60405161029593929190611110565b60405180910390f35b3480156102aa57600080fd5b506102b3610925565b6040516102c09190611044565b60405180910390f35b3480156102d557600080fd5b506102de61092b565b6040516102eb9190611147565b60405180910390f35b34801561030057600080fd5b50610309610951565b6040516103169190611010565b60405180910390f35b34801561032b57600080fd5b50610346600480360381019061034191906110d4565b610a99565b005b34801561035457600080fd5b5061035d610c81565b005b34801561036b57600080fd5b506103866004803603810190610381919061118e565b610e1d565b6040516103939190611147565b60405180910390f35b3480156103a857600080fd5b506103c360048036038101906103be919061118e565b610e5c565b6040516103d09190611147565b60405180910390f35b3480156103e557600080fd5b506103ee610e9b565b6040516103ff9594939291906111bb565b60405180910390f35b34801561041457600080fd5b5061041d610f45565b60405161042a9190611044565b60405180910390f35b34801561043f57600080fd5b50610448610fe7565b6040516104559190611044565b60405180910390f35b34801561046a57600080fd5b50610473610fef565b6040516104809190611044565b60405180910390f35b60003373ffffffffffffffffffffffffffffffffffffffff16600360009054906101000a900473ffffffffffffffffffffffffffffffffffffffff1673ffffffffffffffffffffffffffffffffffffffff161461051b576040517f08c379a0000000000000000000000000000000000000000000000000000000008152600401610512906112b7565b60405180910390fd5b600a60009054906101000a900473ffffffffffffffffffffffffffffffffffffffff1673ffffffffffffffffffffffffffffffffffffffff16637fbba9eb600360009054906101000a900473ffffffffffffffffffffffffffffffffffffffff16600960009054906101000a900473ffffffffffffffffffffffffffffffffffffffff166040518363ffffffff1660e01b81526004016105bc929190611336565b600060405180830381600087803b1580156105d657600080fd5b505af11580156105ea573d6000803e3d6000fd5b505050506001905090565b60085481565b60055481565b600554471015610646576040517f08c379a000000000000000000000000000000000000000000000000000000000815260040161063d906113d1565b60405180910390fd5b6001600b60009054906101000a900473ffffffffffffffffffffffffffffffffffffffff169080600181540180825580915050600190039060005260206000200160009091909190916101000a81548173ffffffffffffffffffffffffffffffffffffffff021916908373ffffffffffffffffffffffffffffffffffffffff1602179055506000600b60009054906101000a900473ffffffffffffffffffffffffffffffffffffffff1690508073ffffffffffffffffffffffffffffffffffffffff166108fc6005549081150290604051600060405180830381858888f1935050505015801561073a573d6000803e3d6000fd5b507f13546aa2e576eaeec16d8bc4b5e127733a7581d78346607876888eba8d21fc8d81600360009054906101000a900473ffffffffffffffffffffffffffffffffffffffff1660055460405161079293929190611412565b60405180910390a150565b60045481565b6064600254605a6107b49190611478565b6107be9190611501565b6004819055506064600254600a6107d59190611478565b6107df9190611501565b6005819055506107ed610c81565b6107f5610601565b565b60008173ffffffffffffffffffffffffffffffffffffffff166370a08231306040518263ffffffff1660e01b81526004016108329190611147565b602060405180830381865afa15801561084f573d6000803e3d6000fd5b505050506040513d601f19601f820116820180604052508101906108739190611547565b506008549050919050565b60075481565b6000806000600b60009054906101000a900473ffffffffffffffffffffffffffffffffffffffff1673ffffffffffffffffffffffffffffffffffffffff16633ff1e05b6040518163ffffffff1660e01b8152600401606060405180830381865afa1580156108f6573d6000803e3d6000fd5b505050506040513d601f19601f8201168201806040525081019061091a91906115a0565b925092509250909192565b60065481565b600360009054906101000a900473ffffffffffffffffffffffffffffffffffffffff1681565b60003373ffffffffffffffffffffffffffffffffffffffff16600360009054906101000a900473ffffffffffffffffffffffffffffffffffffffff1673ffffffffffffffffffffffffffffffffffffffff16146109e3576040517f08c379a00000000000000000000000000000000000000000000000000000000081526004016109da9061168b565b60405180910390fd5b600a60009054906101000a900473ffffffffffffffffffffffffffffffffffffffff1673ffffffffffffffffffffffffffffffffffffffff166306bc6562600360009054906101000a900473ffffffffffffffffffffffffffffffffffffffff166040518263ffffffff1660e01b8152600401610a609190611147565b600060405180830381600087803b158015610a7a57600080fd5b505af1158015610a8e573d6000803e3d6000fd5b505050506001905090565b600060075411610ade576040517f08c379a0000000000000000000000000000000000000000000000000000000008152600401610ad59061171d565b60405180910390fd5b610ae6610f45565b600754610af3919061173d565b6007819055508073ffffffffffffffffffffffffffffffffffffffff166370a08231306040518263ffffffff1660e01b8152600401610b329190611147565b602060405180830381865afa158015610b4f573d6000803e3d6000fd5b505050506040513d601f19601f82011682018060405250810190610b739190611547565b60068190555060075460065411610bbf576040517f08c379a0000000000000000000000000000000000000000000000000000000008152600401610bb6906117bd565b60405180910390fd5b8073ffffffffffffffffffffffffffffffffffffffff1663a9059cbb60008081548110610bef57610bee6117dd565b5b9060005260206000200160009054906101000a900473ffffffffffffffffffffffffffffffffffffffff166007546040518363ffffffff1660e01b8152600401610c3a92919061180c565b6020604051808303816000875af1158015610c59573d6000803e3d6000fd5b505050506040513d601f19601f82011682018060405250810190610c7d9190611861565b5050565b600454471015610cc6576040517f08c379a0000000000000000000000000000000000000000000000000000000008152600401610cbd90611900565b60405180910390fd5b6000600a60009054906101000a900473ffffffffffffffffffffffffffffffffffffffff169080600181540180825580915050600190039060005260206000200160009091909190916101000a81548173ffffffffffffffffffffffffffffffffffffffff021916908373ffffffffffffffffffffffffffffffffffffffff1602179055506000600a60009054906101000a900473ffffffffffffffffffffffffffffffffffffffff1690508073ffffffffffffffffffffffffffffffffffffffff166108fc6004549081150290604051600060405180830381858888f19350505050158015610dba573d6000803e3d6000fd5b507f80718e74c945936b5e26721449f54e48e9d62ee0037ada1ffd4f835c22707ecc81600360009054906101000a900473ffffffffffffffffffffffffffffffffffffffff16600454604051610e1293929190611412565b60405180910390a150565b60008181548110610e2d57600080fd5b906000526020600020016000915054906101000a900473ffffffffffffffffffffffffffffffffffffffff1681565b60018181548110610e6c57600080fd5b906000526020600020016000915054906101000a900473ffffffffffffffffffffffffffffffffffffffff1681565b6000806000806000600a60009054906101000a900473ffffffffffffffffffffffffffffffffffffffff1673ffffffffffffffffffffffffffffffffffffffff16633ff1e05b6040518163ffffffff1660e01b815260040160a060405180830381865afa158015610f10573d6000803e3d6000fd5b505050506040513d601f19601f82011682018060405250810190610f349190611920565b945094509450945094509091929394565b6000670de0b6b3a7640000600254118015610f695750674563918244f40000600254105b15610f99576064600754600a610f7f9190611478565b610f899190611501565b6008819055506008549050610fe4565b674563918244f400006002541115610fd65760646007546014610fbc9190611478565b610fc69190611501565b6008819055506008549050610fe4565b600060088190555060085490505b90565b600047905090565b60025481565b60008115159050919050565b61100a81610ff5565b82525050565b60006020820190506110256000830184611001565b92915050565b6000819050919050565b61103e8161102b565b82525050565b60006020820190506110596000830184611035565b92915050565b600080fd5b600073ffffffffffffffffffffffffffffffffffffffff82169050919050565b600061108f82611064565b9050919050565b60006110a182611084565b9050919050565b6110b181611096565b81146110bc57600080fd5b50565b6000813590506110ce816110a8565b92915050565b6000602082840312156110ea576110e961105f565b5b60006110f8848285016110bf565b91505092915050565b61110a81611084565b82525050565b60006060820190506111256000830186611101565b6111326020830185611035565b61113f6040830184611035565b949350505050565b600060208201905061115c6000830184611101565b92915050565b61116b8161102b565b811461117657600080fd5b50565b60008135905061118881611162565b92915050565b6000602082840312156111a4576111a361105f565b5b60006111b284828501611179565b91505092915050565b600060a0820190506111d06000830188611101565b6111dd6020830187611035565b6111ea6040830186611035565b6111f76060830185611035565b6112046080830184611035565b9695505050505050565b600082825260208201905092915050565b7f596f7520617265206e6f7420746865206f776e65722e20596f7520617265206e60008201527f6f7420616c6c6f77656420746f207374616b65207468697320696e766573746d60208201527f656e740000000000000000000000000000000000000000000000000000000000604082015250565b60006112a160438361120e565b91506112ac8261121f565b606082019050919050565b600060208201905081810360008301526112d081611294565b9050919050565b6000819050919050565b60006112fc6112f76112f284611064565b6112d7565b611064565b9050919050565b600061130e826112e1565b9050919050565b600061132082611303565b9050919050565b61133081611315565b82525050565b600060408201905061134b6000830185611101565b6113586020830184611327565b9392505050565b7f4572726f7220696e2063616c63756c6174696e67204c6971756964697479206160008201527f6d6f756e74000000000000000000000000000000000000000000000000000000602082015250565b60006113bb60258361120e565b91506113c68261135f565b604082019050919050565b600060208201905081810360008301526113ea816113ae565b9050919050565b60006113fc82611303565b9050919050565b61140c816113f1565b82525050565b60006060820190506114276000830186611403565b6114346020830185611101565b6114416040830184611035565b949350505050565b7f4e487b7100000000000000000000000000000000000000000000000000000000600052601160045260246000fd5b60006114838261102b565b915061148e8361102b565b9250817fffffffffffffffffffffffffffffffffffffffffffffffffffffffffffffffff04831182151516156114c7576114c6611449565b5b828202905092915050565b7f4e487b7100000000000000000000000000000000000000000000000000000000600052601260045260246000fd5b600061150c8261102b565b91506115178361102b565b925082611527576115266114d2565b5b828204905092915050565b60008151905061154181611162565b92915050565b60006020828403121561155d5761155c61105f565b5b600061156b84828501611532565b91505092915050565b61157d81611084565b811461158857600080fd5b50565b60008151905061159a81611574565b92915050565b6000806000606084860312156115b9576115b861105f565b5b60006115c78682870161158b565b93505060206115d886828701611532565b92505060406115e986828701611532565b9150509250925092565b7f596f7520617265206e6f7420746865206f776e65722e20596f7520617265206e60008201527f6f7420616c6c6f77656420746f2063616e63656c207468697320696e7665737460208201527f6d656e7400000000000000000000000000000000000000000000000000000000604082015250565b600061167560448361120e565b9150611680826115f3565b606082019050919050565b600060208201905081810360008301526116a481611668565b9050919050565b7f506c6561736520656e7465722074686520616d6f756e74206f6620746f6b656e60008201527f7320796f752077616e7420746f20627579000000000000000000000000000000602082015250565b600061170760318361120e565b9150611712826116ab565b604082019050919050565b60006020820190508181036000830152611736816116fa565b9050919050565b60006117488261102b565b91506117538361102b565b925082820190508082111561176b5761176a611449565b5b92915050565b7f4e6f7420656e6f75676820746f6b656e7320696e207468652072657365727665600082015250565b60006117a760208361120e565b91506117b282611771565b602082019050919050565b600060208201905081810360008301526117d68161179a565b9050919050565b7f4e487b7100000000000000000000000000000000000000000000000000000000600052603260045260246000fd5b60006040820190506118216000830185611101565b61182e6020830184611035565b9392505050565b61183e81610ff5565b811461184957600080fd5b50565b60008151905061185b81611835565b92915050565b6000602082840312156118775761187661105f565b5b60006118858482850161184c565b91505092915050565b7f4572726f7220696e2063616c63756c6174696e67207265736572766520616d6f60008201527f756e740000000000000000000000000000000000000000000000000000000000602082015250565b60006118ea60238361120e565b91506118f58261188e565b604082019050919050565b60006020820190508181036000830152611919816118dd565b9050919050565b600080600080600060a0868803121561193c5761193b61105f565b5b600061194a8882890161158b565b955050602061195b88828901611532565b945050604061196c88828901611532565b935050606061197d88828901611532565b925050608061198e88828901611532565b915050929550929590935056fea26469706673582212203c9d6500ee4de939f612acb498a00f71b636d9ec480e036ea9a88b23f50213c664736f6c63430008100033608060405234801561001057600080fd5b5060405161059c38038061059c833981810160405281019061003291906100e2565b806000806101000a81548173ffffffffffffffffffffffffffffffffffffffff021916908373ffffffffffffffffffffffffffffffffffffffff160217905550426001819055505061010f565b600080fd5b600073ffffffffffffffffffffffffffffffffffffffff82169050919050565b60006100af82610084565b9050919050565b6100bf816100a4565b81146100ca57600080fd5b50565b6000815190506100dc816100b6565b92915050565b6000602082840312156100f8576100f761007f565b5b6000610106848285016100cd565b91505092915050565b61047e8061011e6000396000f3fe6080604052600436106100435760003560e01c80632f8655681461004f5780633ff1e05b146100785780638da5cb5b146100a5578063cf09e0d0146100d05761004a565b3661004a57005b600080fd5b34801561005b57600080fd5b50610076600480360381019061007191906102bd565b6100fb565b005b34801561008457600080fd5b5061008d6101fa565b60405161009c93929190610312565b60405180910390f35b3480156100b157600080fd5b506100ba610230565b6040516100c79190610349565b60405180910390f35b3480156100dc57600080fd5b506100e5610254565b6040516100f29190610364565b60405180910390f35b60008054906101000a900473ffffffffffffffffffffffffffffffffffffffff1673ffffffffffffffffffffffffffffffffffffffff168173ffffffffffffffffffffffffffffffffffffffff1614610189576040517f08c379a000000000000000000000000000000000000000000000000000000000815260040161018090610428565b60405180910390fd5b60008060009054906101000a900473ffffffffffffffffffffffffffffffffffffffff1690508073ffffffffffffffffffffffffffffffffffffffff166108fc479081150290604051600060405180830381858888f193505050501580156101f5573d6000803e3d6000fd5b505050565b60008060008060009054906101000a900473ffffffffffffffffffffffffffffffffffffffff1660015447925092509250909192565b60008054906101000a900473ffffffffffffffffffffffffffffffffffffffff1681565b60015481565b600080fd5b600073ffffffffffffffffffffffffffffffffffffffff82169050919050565b600061028a8261025f565b9050919050565b61029a8161027f565b81146102a557600080fd5b50565b6000813590506102b781610291565b92915050565b6000602082840312156102d3576102d261025a565b5b60006102e1848285016102a8565b91505092915050565b6102f38161027f565b82525050565b6000819050919050565b61030c816102f9565b82525050565b600060608201905061032760008301866102ea565b6103346020830185610303565b6103416040830184610303565b949350505050565b600060208201905061035e60008301846102ea565b92915050565b60006020820190506103796000830184610303565b92915050565b600082825260208201905092915050565b7f596f7520617265206e6f7420746865206f776e65722e20596f7520617265206e60008201527f6f7420616c6c6f77656420746f2063616e63656c207468697320696e7665737460208201527f6d656e7400000000000000000000000000000000000000000000000000000000604082015250565b600061041260448361037f565b915061041d82610390565b606082019050919050565b6000602082019050818103600083015261044181610405565b905091905056fea2646970667358221220907e822053837115db464146464ca947aeb00cc4f24d449de462ed787ba2a93a64736f6c6343000810003360806040523480156200001157600080fd5b5060405162000af938038062000af983398181016040528101906200003791906200018c565b826000806101000a81548173ffffffffffffffffffffffffffffffffffffffff021916908373ffffffffffffffffffffffffffffffffffffffff1602179055504260018190555061038460015462000090919062000217565b6002819055508160038190555080600460006101000a81548173ffffffffffffffffffffffffffffffffffffffff021916908373ffffffffffffffffffffffffffffffffffffffff16021790555050505062000252565b600080fd5b600073ffffffffffffffffffffffffffffffffffffffff82169050919050565b60006200011982620000ec565b9050919050565b6200012b816200010c565b81146200013757600080fd5b50565b6000815190506200014b8162000120565b92915050565b6000819050919050565b620001668162000151565b81146200017257600080fd5b50565b60008151905062000186816200015b565b92915050565b600080600060608486031215620001a857620001a7620000e7565b5b6000620001b8868287016200013a565b9350506020620001cb8682870162000175565b9250506040620001de868287016200013a565b9150509250925092565b7f4e487b7100000000000000000000000000000000000000000000000000000000600052601160045260246000fd5b6000620002248262000151565b9150620002318362000151565b92508282019050808211156200024c576200024b620001e8565b5b92915050565b61089780620002626000396000f3fe60806040526004361061007f5760003560e01c80638da5cb5b1161004e5780638da5cb5b146101375780639e1a4d1914610162578063a69df4b51461018d578063cf09e0d0146101b857610086565b806306bc65621461008b5780633ff1e05b146100b45780637fbba9eb146100e3578063851073671461010c57610086565b3661008657005b600080fd5b34801561009757600080fd5b506100b260048036038101906100ad91906104f6565b6101e3565b005b3480156100c057600080fd5b506100c9610298565b6040516100da95949392919061054b565b60405180910390f35b3480156100ef57600080fd5b5061010a600480360381019061010591906105dc565b6102dd565b005b34801561011857600080fd5b50610121610437565b60405161012e919061061c565b60405180910390f35b34801561014357600080fd5b5061014c61045d565b604051610159919061061c565b60405180910390f35b34801561016e57600080fd5b50610177610481565b6040516101849190610637565b60405180910390f35b34801561019957600080fd5b506101a2610487565b6040516101af9190610637565b60405180910390f35b3480156101c457600080fd5b506101cd61048d565b6040516101da9190610637565b60405180910390f35b6002544211610227576040517f08c379a000000000000000000000000000000000000000000000000000000000815260040161021e906106fb565b60405180910390fd5b60008060009054906101000a900473ffffffffffffffffffffffffffffffffffffffff1690508073ffffffffffffffffffffffffffffffffffffffff166108fc479081150290604051600060405180830381858888f19350505050158015610293573d6000803e3d6000fd5b505050565b60008060008060008060009054906101000a900473ffffffffffffffffffffffffffffffffffffffff1660025460015447600354945094509450945094509091929394565b6002544211610321576040517f08c379a0000000000000000000000000000000000000000000000000000000008152600401610318906107b3565b60405180910390fd5b6000600460009054906101000a900473ffffffffffffffffffffffffffffffffffffffff1690508073ffffffffffffffffffffffffffffffffffffffff166108fc479081150290604051600060405180830381858888f1935050505015801561038e573d6000803e3d6000fd5b508173ffffffffffffffffffffffffffffffffffffffff1663a9059cbb600460009054906101000a900473ffffffffffffffffffffffffffffffffffffffff166003546040518363ffffffff1660e01b81526004016103ee9291906107d3565b6020604051808303816000875af115801561040d573d6000803e3d6000fd5b505050506040513d601f19601f820116820180604052508101906104319190610834565b50505050565b600460009054906101000a900473ffffffffffffffffffffffffffffffffffffffff1681565b60008054906101000a900473ffffffffffffffffffffffffffffffffffffffff1681565b60035481565b60025481565b60015481565b600080fd5b600073ffffffffffffffffffffffffffffffffffffffff82169050919050565b60006104c382610498565b9050919050565b6104d3816104b8565b81146104de57600080fd5b50565b6000813590506104f0816104ca565b92915050565b60006020828403121561050c5761050b610493565b5b600061051a848285016104e1565b91505092915050565b61052c816104b8565b82525050565b6000819050919050565b61054581610532565b82525050565b600060a0820190506105606000830188610523565b61056d602083018761053c565b61057a604083018661053c565b610587606083018561053c565b610594608083018461053c565b9695505050505050565b60006105a9826104b8565b9050919050565b6105b98161059e565b81146105c457600080fd5b50565b6000813590506105d6816105b0565b92915050565b600080604083850312156105f3576105f2610493565b5b6000610601858286016104e1565b9250506020610612858286016105c7565b9150509250929050565b60006020820190506106316000830184610523565b92915050565b600060208201905061064c600083018461053c565b92915050565b600082825260208201905092915050565b7f54686520636f6e7472616374206973206c6f636b65642e20596f752063616e6e60008201527f6f74206c6971756961746520796f7572206173736574732074696c6c2074686560208201527f206c6f636b20706572696f6420697320636f6d706c6574650000000000000000604082015250565b60006106e5605883610652565b91506106f082610663565b606082019050919050565b60006020820190508181036000830152610714816106d8565b9050919050565b7f54686520636f6e7472616374206973206c6f636b65642e20596f752063616e6e60008201527f6f74207374616b6520796f7572206173736574732074696c6c20746865206c6f60208201527f636b20706572696f6420697320636f6d706c6574650000000000000000000000604082015250565b600061079d605583610652565b91506107a88261071b565b606082019050919050565b600060208201905081810360008301526107cc81610790565b9050919050565b60006040820190506107e86000830185610523565b6107f5602083018461053c565b9392505050565b60008115159050919050565b610811816107fc565b811461081c57600080fd5b50565b60008151905061082e81610808565b92915050565b60006020828403121561084a57610849610493565b5b60006108588482850161081f565b9150509291505056fea264697066735822122069b9b73d969fb303560b7eeb6e4f6ad4f1c8f4f0f68a5123e92b087b49d78f5f64736f6c63430008100033",
  "immutableReferences": {},
  "source": "// SPDX-License-Identifier: MIT\npragma solidity ^0.8.13;\n\nimport \"./MindPay.sol\";\nimport \"./Reserve.sol\";\nimport \"./Liquidity.sol\";\n\ncontract InvestmentTracker{\n\n    address[] public reserve_investments;\n    address[] public liquid_investments;\n    uint256 public investedAmount;\n    address public owner;\n    uint256 public reserve_amount;\n    uint256 public liquidity_amount;\n    uint256 public token_balance; //current contract token balance\n    uint256 public token_amount; // tokens invested\n    uint256 public bonus_tokens;\n\n    MindPay MPYToken;\n    ReserveContract new_investment_reserve;\n    LiquidContract new_investment_liquidity;\n    \n    event ReserveEtherTransfer(address reserve_contract,address owner,uint EthTRansferred);\n    event LiquidEtherTransfer(address liquid_contract,address owner,uint EthTRansferred);\n     \n    constructor(uint256 _tokenamount, address _MindPayAddress)  payable {\n      owner = msg.sender;\n      investedAmount = msg.value;\n      token_amount = _tokenamount;\n      MPYToken = MindPay(_MindPayAddress);\n      new_investment_liquidity = new LiquidContract(msg.sender);\n      new_investment_reserve = new ReserveContract(msg.sender ,token_balance,address(this));    \n    }\n\n    function processInvestment() public {       \n        reserve_amount = ((90 * investedAmount) / 100);\n        liquidity_amount = ((10 * investedAmount)/ 100);\n        transferReserveEther();\n        transferliquidAssets();\n        \n    }\n\n    function transferReserveEther() public {\n        require(address(this).balance >= reserve_amount,\"Error in calculating reserve amount\");\n        reserve_investments.push(payable(new_investment_reserve));\n        address payable _reserve = payable(new_investment_reserve);\n        _reserve.transfer(reserve_amount);   \n        emit ReserveEtherTransfer(_reserve,owner,reserve_amount);\n    }\n\n    function transferReserveTokens(IERC20 MindPayToken) public {\n        require(token_amount > 0,\"Please enter the amount of tokens you want to buy\");\n        token_amount = token_amount + getBonusTokens();\n        token_balance = MindPayToken.balanceOf(address(this));\n        require(token_balance > token_amount,\"Not enough tokens in the reserve\");\n        MindPayToken.transfer(reserve_investments[0], token_amount);\n\n    }\n\n    function getBonusTokens() public returns(uint){\n        if( investedAmount > 1 * 10**18  &&  investedAmount < 5 * 10**18) {   // if else statement\n            bonus_tokens = ((10 * token_amount) / 100);\n            return bonus_tokens;\n        } else if( investedAmount > 5 * 10**18 ){\n            bonus_tokens = ((20 * token_amount) / 100);\n            return bonus_tokens;\n        } else {\n            bonus_tokens = 0;\n            return bonus_tokens;\n        }\n    }\n\n    function transferliquidAssets() public {\n        require(address(this).balance >= liquidity_amount,\"Error in calculating Liquidity amount\");\n        liquid_investments.push(payable(new_investment_liquidity));\n        address payable _liquid = payable(new_investment_liquidity);\n        _liquid.transfer(liquidity_amount);\n        emit LiquidEtherTransfer(_liquid,owner,liquidity_amount);\n    }\n\n    function getEtherBalance() public view returns(uint){\n        return address(this).balance;\n    }\n\n    function getTokenBalance(IERC20 MindPayToken) public view returns(uint){\n        MindPayToken.balanceOf(address(this));\n        return bonus_tokens;\n    }\n\n    function getReserveInvestmentContractBalance()public view returns(address , uint , uint , uint , uint){\n        return new_investment_reserve.viewBalance();\n    }\n\n    function getLiquidContractBalance()public view returns(address, uint, uint){\n        return new_investment_liquidity.viewBalance();\n    }\n\n    function cancelInvestment()public returns(bool cancellation_success){\n            require(owner == msg.sender, \"You are not the owner. You are not allowed to cancel this investment\");\n            new_investment_reserve.cancelInvestment(owner);\n            return true;\n    }\n\n    function stakeInvestment()public returns(bool cancellation_success){\n            require(owner == msg.sender, \"You are not the owner. You are not allowed to stake this investment\");\n            new_investment_reserve.stakeInvestment(owner, MPYToken);\n            return true;\n    }\n\n    receive() external payable{\n\n    }\n\n}\n\n\n\n",
  "sourcePath": "/home/oem/Downloads/ERC20-MindPay-Token-Investment-main/contracts/InvestTrack.sol",
  "compiler": {
    "name": "solc",
    "version": "0.8.16+commit.07a7930e.Emscripten.clang"
  },
  "schemaVersion": "3.4.9",
  "updatedAt": "2022-08-25T17:45:04.902Z",
  "devdoc": {
    "kind": "dev",
    "methods": {},
    "version": 1
  },
  "userdoc": {
    "kind": "user",
    "methods": {},
    "version": 1
  }
}